:100000000C9434000C9440000C943E000C943E0080
:100010000C943E000C943E000C943E000C943E0068
:100020000C943E000C943E000C943E000C943E0058
:100030000C943E000C943E000C943E000C943E0048
:100040000C943E000C943E000C943E000C943E0038
:100050000C943E000C943E000C943E000C943E0028
:100060000C943E000C943E0011241FBECFEFD8E04C
:10007000DEBFCDBF0E9459000C946A000C940000B2
:100080002F932FB72F938F939F9385B190E289275A
:1000900085B92FEF81EE94E0215080409040E1F748
:1000A00000C00000E09A9F918F912F912FBF2F9158
:1000B0001895259A52985A9A809169008260809387
:1000C0006900809169008E7F80936900E09AE89AC8
:0800D0007894FFCFF894FFCFF4
:00000001FF
