:100000000C9434000C9446000C9446000C9446006A
:100010000C9446000C9446000C9446000C94460048
:100020000C9446000C9446000C9446000C94460038
:100030000C9446000C9446000C9446000C94460028
:100040000C9446000C9446000C9446000C94460018
:100050000C9446000C9446000C9446000C94460008
:100060000C9446000C94460011241FBECFEFD8E03C
:10007000DEBFCDBF21E0A0E0B1E001C01D92A13004
:10008000B207E1F70E944F000C94B1000C940000FD
:100090009091C00095FFFCCF8093C600089587E63D
:1000A00090E09093C5008093C40088E08093C100E5
:1000B00086E08093C2002FEF83ED90E321508040D3
:1000C0009040E1F700C0000080910001811124C040
:1000D0000E94480080E00E9448002FEF87EA91E6E6
:1000E000215080409040E1F700C0000081E00E9474
:1000F000480082E00E94480088E00E94480080E1B9
:100100000E94480084E00E94480080E10E9448006C
:1001100080E00E944800FFCF80E00E94480083E01A
:100120000E9448002FEF89E698E1215080409040DE
:10013000E1F700C0000080E00E94480081E00E94DA
:1001400048002FEF89E698E1215080409040E1F788
:1001500000C0000080E00E94480080E00E9448004B
:06016000DACFF894FFCF96
:00000001FF
