:020000020000FC
:100000000C945A000C9441000C9442000C94430050
:100010000C9444000C9445000C9446000C9447004A
:100020000C9448000C9449000C944A000C944B002A
:100030000C944C000C944D000C944E000C944F000A
:100040000C9450000C9451000C9452000C945300EA
:100050000C9454000C9455000C9456000C945700CA
:100060000C9458000C945900FFCF000025E13BE4AC
:100070004CEB00C04A95F1F73A95E1F72A95D1F794
:100080000895189518951895189518951895189518
:1000900018951895189518951895189518951895F8
:1000A00018951895189518951895189518951895E8
:1000B0001895189500E00093C1000FEF0DBF08E000
:0600C0000EBF0C94340099
:00000001FF
