:100000000C9434000C943E000C943E000C943E0082
:100010000C943E000C943E000C943E000C943E0068
:100020000C943E000C943E000C943E000C943E0058
:100030000C943E000C943E000C943E000C943E0048
:100040000C943E000C943E000C943E000C943E0038
:100050000C943E000C943E000C943E000C943E0028
:100060000C943E000C943E0011241FBECFEFD8E04C
:10007000DEBFCDBF0E9481000C94A5000C9400004F
:100080004BB121E030E0B90102C0660F771F8A95BD
:10009000E2F7CB01462B4BB975E07A95F1F70000FA
:1000A0009BB1809589238BB90895EF92FF920F93AE
:1000B0001F93CF93DF938C01CFE0D0E0EE24E39445
:1000C000F12CC7010C2E02C0880F991F0A94E2F789
:1000D00080239123892B69F0589A81E00E94400087
:1000E000219778F7DF91CF911F910F91FF90EF90BB
:1000F00008955898F2CF5A980E94550082E00C94C7
:100100004000509A519A529A11E0C1E0D0E0CE01DD
:100110000E947B002FEF84E39CE0215080409040C0
:10012000E1F700C00000111549F0CC0FDD1F11E010
:10013000C11520E8D20759F710E0E9CFD695C79549
:0E01400011E0C130D105C1F7E2CFF894FFCF36
:00000001FF
