:100000000C9434000C9490000C949A000C944900C9
:100010000C9449000C9449000C9449000C9449003C
:100020000C9449000C9449000C9449000C9449002C
:100030000C9449000C9449000C9449000C9449001C
:100040000C9449000C9449000C9449000C9449000C
:100050000C9449000C9449000C9449000C944900FC
:100060000C9449000C94490011241FBECFEFD8E036
:10007000DEBFCDBF11E0A0E0B1E0E8E5F1E002C0F5
:1000800005900D92A230B107D9F70E944B000C9455
:10009000AA000C940000259A529A8091690082600F
:1000A00080936900809169008E7F80936900E09A57
:1000B000E89A539A809169008860809369008091E2
:1000C00069008B7F80936900E19AE99A789490E2C5
:1000D000809100018230D1F0833079F08130C1F716
:1000E0002FEF31EE84E0215030408040E1F700C036
:1000F000000085B1892785B9EBCF2FEF31EE84E081
:10010000215030408040E1F700C000002FEF31EE79
:1001100084E0215030408040E1F700C00000E0CF93
:100120001F921FB61F921124109200011F901FBE34
:100130001F9018958F938FB78F9380910001833014
:1001400019F0809100018F5F809300018F918FBF24
:080150008F911895F894FFCF80
:020158000100A4
:00000001FF
