:020000020000FC
:100000000C946C000C9453000C9454000C94550008
:100010000C9456000C9457000C9458000C94590002
:100020000C945A000C945B000C945C000C945D00E2
:100030000C945E000C945F000C9460000C946100C2
:100040000C9462000C9463000C9464000C946500A2
:100050000C9466000C9467000C9468000C94690082
:100060000C946A000C946B000FEF0AB900E00BB916
:1000700022E011E0312F322B3BB90AD0110F1217B9
:10008000C9F72BB905D0220F203099F722E0F1CF24
:1000900045E15BE46CEB00C06A95F1F75A95E1F736
:1000A0004A95D1F7089518951895189518951895AB
:1000B00018951895189518951895189518951895D8
:1000C00018951895189518951895189518951895C8
:1000D000189518951895189500E00093C1000FEF3A
:0A00E0000DBF08E00EBF0C943400C1
:00000001FF
