:100000000C9434000C943E000C943E000C943E0082
:100010000C943E000C943E000C943E000C943E0068
:100020000C943E000C943E000C943E000C943E0058
:100030000C943E000C943E000C943E000C943E0048
:100040000C943E000C943E000C943E000C943E0038
:100050000C943E000C943E000C943E000C943E0028
:100060000C943E000C943E0011241FBECFEFD8E04C
:10007000DEBFCDBF0E9440000C9462000C940000D3
:100080008FEF8AB91BB882E091E0282F292B2BB97A
:100090002FEF34E34CE0215030404040E1F700C006
:1000A0000000990F981788F38BB99FEF24E33CE089
:1000B000915020403040E1F700C00000880F8115CA
:0800C00011F3E2CFF894FFCF29
:00000001FF
