:020000020000FC
:100000000C945F000C945F000C945F000C945F00F4
:100010000C945F000C945F000C945F000C945F00E4
:100020000C945F000C945F000C945F000C945F00D4
:100030000C945F000C945F000C945F000C945F00C4
:100040000C945F000C945F000C945F000C945F00B4
:100050000C945F000C945F000C945F000C945F00A4
:100060000C945F000C945F00259A2D9A04D02D9873
:1000700002D00C943500000029E03EE142EE4A95A2
:10008000F1F73A95E1F72A95D1F700C008950000FD
:1000900025E13BE44CEB4A95F1F73A95E1F72A95D7
:1000A000D1F700C00895000029E236E94DE74A95EE
:1000B000F1F73A95E1F72A95D1F70000089500E0AD
:1000C0000093C1003FEF3DBF38E03EBF0C943400C9
:00000001FF
