:020000020000FC
:100000000C9462000C9449000C944A000C944B0030
:100010000C944C000C944D000C944E000C944F002A
:100020000C9450000C9451000C9452000C9453000A
:100030000C9454000C9455000C9456000C945700EA
:100040000C9458000C9459000C945A000C945B00CA
:100050000C945C000C945D000C945E000C945F00AA
:100060000C9460000C9461000FEF0AB91BB901E019
:100070000BB903D0000FD9F3FBCF000025E13BE41F
:100080004CEB00C04A95F1F73A95E1F72A95D1F784
:100090000895189518951895189518951895189508
:1000A00018951895189518951895189518951895E8
:1000B00018951895189518951895189518951895D8
:1000C0001895189500E00093C1000FEF0DBF08E0F0
:0600D0000EBF0C94340089
:00000001FF
