:100000000C9440000C94D9160C9407170C943517D7
:100010000C9463170C9491170C9468000C9420199D
:100020000C9444190C9468190C94CB180C948318F4
:100030000C94A7180C94EF180C94E1170C94051865
:100040000C9429180C9468000C94531E0C949B1E5D
:100050000C94771E0C94B0160C9468000C946800F5
:100060000C94DE1B0C946800D416FD162B17591740
:100070008717B5174D1813198C19041CBF1E171FAD
:1000800011241FBECFEFD8E0DEBFCDBF12E0A0E04D
:10009000B1E0ECE9F8E402C005900D92A63AB10790
:1000A000D9F723E0A6EAB2E001C01D92AA32B20756
:1000B000E1F710E0C0E4D0E004C02197FE010E9407
:1000C0002121C433D107C9F70E941F1F0C944C246F
:1000D0000C940000811102C00C94591281E0089523
:1000E000811102C00C94871181E008950F931F9332
:1000F000FB01BA01A9019801811105C0CF011F912F
:100100000F910C945C1284E090E01F910F91089580
:100110000F931F93FB01BA01A9019801811105C03A
:10012000CF011F910F910C94AD1284E090E01F91CC
:100130000F910895962F811104C0BA01892F0C9454
:10014000301384E090E00895FC016281738190E0B7
:1001500080E0982F872F762F66272181622B982F9A
:10016000872F762F66272081622B0895DC01FB0103
:10017000480F591F9D918191292F281B330BC901CD
:10018000A417B50711F00097A9F308950F931F93D3
:10019000FC019A01AB0122503109410951098389BF
:1001A0009489A589B6890297A109B1092817390749
:1001B0004A075B0778F4A185B2850E94272107A131
:1001C00010A521A532A5600F711F821F931F1F91DB
:1001D0000F91089560E070E0CB01F9CFDC012D9123
:1001E0003C9111972115310569F0F901AF01919109
:1001F000903259F050F09A33C9F7F90181914E17B6
:100200005F0741F08FEF9FEF08959A33B1F390E0CD
:1002100080E008958033B1F74F5F5F4F4D935C935B
:10022000F6CF0F931F93CF93DF93EC018B01892BB4
:1002300061F489E090E030E020E0F8013183208330
:10024000DF91CF911F910F910895E881F981309747
:1002500081F38081882369F32A813B81858196819E
:100260002817390731F781810E946A0080FDE1CFAC
:100270002881398190E080E0E0CFFB01460F571FD5
:100280002191DC012D93CD01E417F507C9F70895FD
:10029000FB01428D538D70E060E0833059F4848916
:1002A0009589B0E0A0E0DC0199278827482B592BDD
:1002B0006A2B7B2BCB01BA0108958F929F92AF924C
:1002C000BF92EF92FF920F931F93CF93DF93EC01B6
:1002D0007C014FE2E40EF11C2BA53CA54DA55EA5CB
:1002E00001E010E0B70189810E948800892B61F547
:1002F0001B820BA51CA52DA53EA58F89988DA98DC8
:10030000BA8D8F8C98A0A9A0BAA0B901A8014819EC
:1003100059096A097B094A015B0188169906AA06F0
:10032000BB0678F46A81623061F4A9019801280F54
:10033000391F4A1F5B1F01E010E0B70189810E944D
:10034000880090E080E002C081E090E0DF91CF91F2
:100350001F910F91FF90EF90BF90AF909F908F9063
:100360000895FC01238121110C945D0190E080E04F
:1003700008958F929F92AF92BF92EF92FF920F9348
:100380001F93CF93DF93EC014A015B018BA59CA5E2
:10039000ADA5BEA5F12CE12C88159905AA05BB05D4
:1003A000E9F0CE010E94B1017C01892BB9F401E092
:1003B00010E0A5019401BE01615D7F4F89810E941B
:1003C0007600892B39F0EE24E394F12C88248A946A
:1003D000982C54018BA69CA6ADA6BEA6C701DF91A2
:1003E000CF911F910F91FF90EF90BF90AF909F9092
:1003F0008F900895CF93DF93EC011B828FEF9FEFD7
:10040000DC018BA79CA7ADA7BEA7CE010E94B901B6
:10041000892B31F5FE01E35DFD4F808191818535AA
:100420009A4A11F58FA58B3E19F0885E8230F0F460
:1004300043E050E061E071E0CE018B599F4F0E9494
:10044000B600892B59F045E050E065E071E0CE013F
:100450008F579F4F0E94B600892B41F480E001C066
:1004600084E0DF91CF91089583E0FBCF82E0F9CF64
:100470002F923F924F925F926F927F928F929F92B4
:10048000AF92BF92CF92DF92EF92FF920F931F93A2
:10049000CF93DF93CDB7DEB76E970FB6F894DEBF7C
:1004A0000FBECDBF5B01F42EDB011D921C920E949A
:1004B000EE006C018BE090E0D7FC22C0F601EE0F5D
:1004C000FF1FE855FD4F008111818CE090E0011580
:1004D0001105B1F0F50111830083E894F0F8D8011B
:1004E0008C91882331F111968C910E946A0080FDD5
:1004F00020C0FF2009F405C282FF03C28AE090E019
:100500006E960FB6F894DEBF0FBECDBFDF91CF91D0
:100510001F910F91FF90EF90DF90CF90BF90AF9021
:100520009F908F907F906F905F904F903F902F9013
:100530000895F8011082C1828C2D0E94700080FD08
:100540000FC2FF2011F082FDD9CF40E050E0BA0188
:10055000C8010E94FA01823009F0FFC06801FFE083
:10056000CF1AFEEFDF0A9E012F5F3F4F790148014E
:100570003FEC831A3DEF930A5701D6018C918823F3
:1005800009F4DEC0C60104960E94A400F50161933F
:100590007193819391935F01F0E1CF0ED11CC81448
:1005A000D90459F7670120E1C20ED11CD7014D9043
:1005B0005D906D907D907D0183E041145104610454
:1005C000710409F4C1C0B301A201C8010E94FA017B
:1005D000823008F0B9C0F80182AD93AD8115924028
:1005E00009F0C3C0F801EB5BFF4F80809180B12C14
:1005F000A12C8114910439F4C8018D5A9F4F0E9497
:10060000A4004B015C01D80157968D929D92AD924A
:10061000BC925A97DF96BC91B98BF801B2838B2FAD
:100620008150823008F0A1C034AD3E8B832F90E022
:1006300092878187009709F498C09C012150310965
:1006400082239323892B09F090C0E05CFF4F208028
:100650003180D80118963C922E921797C1018F7065
:100660009927892B09F081C03296C080D180F12C66
:10067000E12CC114D10439F4C801815B9F4F0E9461
:10068000A4006B017C01D801DD96ED91FC913097BF
:1006900009F46BC02989A22FB0E0A50194010E9442
:1006A00027216B8F7C8F8D8F9E8FCF01B0E0A0E0D4
:1006B0008F8B988FA98FBA8FC10154E0969587953B
:1006C0005A95E1F72F89388D498D5A8D280F391F9A
:1006D000411D511DDA01C9012B8D3C8D4D8D5E8D63
:1006E000280F391F4A1F5B1F2A8B3B8B4C8B5D8B5E
:1006F000C216D306E406F506C0F1C701B601621BB7
:10070000730B840B950BAE892A2F30E050E040E04C
:100710000E94FF20211531054105510531F1263F89
:10072000BFEF3B074B07BFE05B07F8F4263F9FEFA7
:1007300039074105510508F416C1A3E0A98B1AC079
:1007400060E070E0CB0122CFCE14DF0409F02ECFA1
:10075000843059F481E090E0D3CE8430D9F3412C39
:10076000512C3201823008F436CF8DE090E0C8CEB3
:10077000E1E0E98B69017A01F2E0CF0ED11CE11CC6
:10078000F11CD8015396CD92DD92ED92FC925697D2
:10079000F801438E548E658E768E8F89988DA98D43
:1007A000BA8D840D951DA61DB71D878F90A3A1A39B
:1007B000B2A34A895B896C897D89440D551D661DEC
:1007C000771D47A350A761A772A7F989F33009F0F5
:1007D0009BC0F801E75AFF4F80819181892B29F650
:1007E000232819F6C801855A9F4F0E94A400D801FA
:1007F00093966D937D938D939C93969742E0CC0C4A
:10080000DD1CEE1CFF1C4A95D1F73FEFC30E31E013
:10081000D31EE11CF11C89E0F694E794D794C794A9
:100820008A95D1F78C149D04AE04BF0408F49DCFC3
:100830008FEF9FEFDC01F8018787908BA18BB28B44
:1008400083879487A587B68780E88483F989F33006
:1008500009F047C0F801E15AFF4F8081918101976B
:1008600009F03FC0B301A2014F5F5F4F6F4F7F4F51
:10087000C8010E94B901892BA1F5D80114961C92D8
:10088000F801E35DFD4F8081918185359A4A49F5F4
:10089000C8018F960E94A40062357245814691443A
:1008A00001F5C8018D5E9D4F0E94A400623772471A
:1008B00081449146B1F4C801895E9D4F0E94A40015
:1008C000D8011F966D937D938D939C935297C80189
:1008D000855E9D4F0E94A400F80163877487858719
:1008E0009687E989D801EC938091A6029091A7029E
:1008F00001969093A7028093A60216969C938E93DE
:10090000159790E080E0FCCD232809F42ECF2B8DA5
:100910003C8D4D8D5E8D820F931FA41FB51FF80176
:1009200083A394A3A5A3B6A3F989F23029F4CC0C30
:10093000DD1CEE1CFF1C69CFA3E0B0E0A70196010F
:100940000E942721969587957795679521E0C22289
:10095000DD24EE24FF24C60ED71EE81EF91E55CF57
:1009600083E090E0CDCD263FFFE03F0741055105F4
:1009700008F4FECE82E0898BFDCEAF92BF92CF927B
:10098000DF92EF92FF920F931F93CF93DF9342304A
:1009900051056105710508F4A9C0FC01038914899A
:1009A00025893689401751076207730708F09EC0F2
:1009B0006A017B01EC018081823009F457C08330E9
:1009C00009F471C0813009F091C08A01169507952C
:1009D000040F151FC801892F99278695478D50A1AF
:1009E00061A172A1480F591F611D711DCF010E94A5
:1009F000B901892B71F06FEF7FEFCB01DF91CF91C0
:100A00001F910F91FF90EF90DF90CF90BF90AF902C
:100A100008955801FFEFAF1ABF0A1170FE01E00FF1
:100A2000F11F17A5C501892F992786954F8D58A1CC
:100A300069A17AA1480F591F611D711DCE010E9445
:100A4000B901892BC1F681E0B822CA0DDB1D6FA563
:100A5000762F612FC0FE08C0E4E076956795EA9591
:100A6000E1F790E080E0CACF7F70FBCF77276F2D52
:100A70005E2D4D2D878D90A1A1A1B2A1480F591FC8
:100A80006A1F7B1FCF010E94B901892B09F0B3CFE8
:100A9000CC0CDD1CE894C0F8E1E0DE22CC0DDD1DBD
:100AA0006FA578A9DECF878D90A1A1A1B2A137E073
:100AB00076956795579547953A95D1F7480F591F01
:100AC0006A1F7B1FCF010E94B901892B09F093CFC8
:100AD000AF96C601880F991F880F991F8C7F917060
:100AE0008C0F9D1F0E94A4009F7088CF61E070E072
:100AF00080E090E083CF8F929F92AF92BF92CF928F
:100B0000DF92EF92FF920F931F93CF93DF938C01AD
:100B1000FC01C081D18116861786108A118AC68091
:100B2000D780E084F184C114D104E104F104D1F54B
:100B30008881833040F08BA19CA1ADA1BEA100971C
:100B4000A105B10589F58F819885892B79F482E01B
:100B500090E0DF91CF911F910F91FF90EF90DF9088
:100B6000CF90BF90AF909F908F9008958BA19CA144
:100B7000ADA1BEA1F801868B978BA08FB18FF80134
:100B8000C28AD38AE48AF58A86899789A08DB18D35
:100B9000892B8A2B8B2BD9F2AF96D38FC28F90E003
:100BA00080E0D7CFD701C60189849A84B12CA12CCB
:100BB00029E0880C991CAA1CBB1C2A95D1F76C0152
:100BC0007D01B701A60181149104A104B104F1F4DF
:100BD000F801808191810E94BD046B017C01FFEFCF
:100BE000CF16DF06EF06FF06D1F082E0C816D1046B
:100BF000E104F10408F4ABCF8B899C89AD89BE89EF
:100C0000C816D906EA06FB06E0F2A1CFCE010E9483
:100C1000C600F801668B778B808F918FB0CF81E013
:100C200090E097CF2F923F924F925F926F927F9278
:100C30008F929F92AF92BF92CF92DF92EF92FF92EC
:100C40000F931F93CF93DF9300D000D000D0CDB788
:100C5000DEB79E838D836A017B0128013901DC01A7
:100C60008C91823009F497C0833009F4B6C081308A
:100C700009F0F4C08A0116950795040F151FC801E5
:100C8000892F992786955F964D915D916D917C9105
:100C90009297480F591F611D711DCD010E94B90126
:100CA0005C01892B09F056C02D803E80BFE22B0EDF
:100CB000311C4801EFEF8E1A9E0A1170F101E00F0E
:100CC000F11F842DA7019601217033274427552752
:100CD00029833A834B835C83C0FE07C080818F7079
:100CE00040E1449E90011124822B808381E0AD81FC
:100CF000BE8113968C9313975F964D915D916D9184
:100D00007C919297C401892F99278695480F591F86
:100D1000611D711DCD010E94B9015C01892BD1F4C7
:100D2000B1E09B22F101E80DF91D29813A814B8147
:100D30005C81232B242B252B39F164E07694679476
:100D4000579447946A95D1F7408281E0AD81BE8186
:100D500013968C93C50126960FB6F894DEBF0FBE8E
:100D6000CDBFDF91CF911F910F91FF90EF90DF905A
:100D7000CF90BF90AF909F908F907F906F905F903B
:100D80004F903F902F9008958081807F352D3F7048
:100D9000432E482AD9CF77276F2D5E2D4D2DED811B
:100DA000FE81878D90A1A1A1B2A1480F591F6A1F92
:100DB0007B1FCF010E94B9015C01892B59F6ED819F
:100DC000FE81BF96CC0CDD1CE894C0F821E0D22255
:100DD000EC0DFD1D00835182B8CFED81FE81878D22
:100DE00090A1A1A1B2A137E0769567955795479557
:100DF0003A95D1F7480F591F6A1F7B1FCF010E94F8
:100E0000B9015C01892B09F0A5CFFFE07F228D811C
:100E10009E818F96CC0CDD1CCC0CDD1C2CEFC222ED
:100E200021E0D222C80ED91EC6010E94A400662766
:100E300077278827907F462A572A682A792AD60159
:100E40004C9211965C92119712966C92129713968F
:100E50007C9281E0ED81FE8183837CCF82E0A82EAD
:100E6000B12C78CF4F925F926F927F928F929F9228
:100E7000AF92BF92CF92DF92EF92FF920F931F93A8
:100E8000CF93DF938C012A013B01FC01C081D1810A
:100E9000411451046104710409F58B849C84AD8470
:100EA000BE8481149104A104B10409F44DC08B895E
:100EB0009C89AD89BE8988169906AA06BB0608F0EA
:100EC00043C08F859889A989BA89892B8A2B8B2B56
:100ED00009F03FC0C12CD12C760116C0CE010E9472
:100EE000BD046B017C01F2E0CF16D104E104F104F2
:100EF00008F40CC12FEFC216D206E206F206B9F4CE
:100F0000CC24CA94DC2C7601C701B601DF91CF91C5
:100F10001F910F91FF90EF90DF90CF90BF90AF9017
:100F20009F908F907F906F905F904F9008958B89E6
:100F30009C89AD89BE8953014201C816D906EA06CB
:100F4000FB0608F0BECFE0CF812C912C5401839496
:100F5000B8CF84149504A604B70409F041C0750104
:100F600064018FEFC81AD80AE80AF80A8B899C89AD
:100F7000AD89BE89C816D906EA06FB0628F022E02C
:100F8000C22ED12CE12CF12CB701A601F8018081F1
:100F900091810E94BD04613071058105910509F4BC
:100FA000B5C06F3FFFEF7F078F079F0709F4A8CFFA
:100FB000672B682B692B09F44DC08B859C85AD850B
:100FC000BE8582309105A105B10550F04B895C8941
:100FD0006D897E8984179507A607B70708F478C03E
:100FE000750164012FEFC21AD20AE20AF20A8B8954
:100FF0009C89AD89BE89C816D906EA06FB0660F051
:1010000082E088169104A104B10408F463CF92E051
:10101000C92ED12CE12CF12CB701A601F801808159
:1010200091810E94BD046115710581059105B9F09A
:10103000613071058105910509F468C06F3F7F4FEC
:101040008F4F9F4F09F45CCFC814D904EA04FB0406
:1010500049F640CFC114D104E104F10409F222E0C1
:10106000C216D104E104F10408F450C08B899C89B4
:10107000AD89BE89C816D906EA06FB0608F046C047
:101080000FEF1FEF9801B701A601CE010E941206D3
:101090000097C9F54114510461047104E1F4CB8651
:1010A000DC86ED86FE868F859889A989BA894B8969
:1010B0005C896D897E89425051096109710948171F
:1010C00059076A077B0738F58C8181608C831CCFB8
:1010D0004C015D0185CF82E0481651046104710422
:1010E000A8F08B899C89AD89BE89481659066A0685
:1010F0007B0660F497018601B301A201CE010E9434
:101100001206009761F2019709F4FACEC12CD12C96
:101110007601C394F9CE0197A109B1098F87988B05
:10112000A98BBA8BD1CF2F923F924F925F926F9241
:101130007F928F929F92AF92BF92CF92DF92EF9267
:10114000FF920F931F93CF93DF9300D000D000D076
:10115000CDB7DEB73B01FC0146895789608D718DA3
:10116000411551056105710509F44CC0C684D78449
:10117000E088F188F0E2CF0ED11CE11CF11CC11413
:10118000D10420E2E206F104E8F51C01FC01019023
:10119000F081E02DFE83ED83D701C6019170AA276F
:1011A000BB27892B8A2B8B2B09F0FEC04F5F5F4F2B
:1011B0006F4F7F4FF101468B578B608F718F428944
:1011C000538964897589ED81FE8141155105610559
:1011D0007105D9F487819085B0E0A0E0B701A60140
:1011E00035E076956795579547953A95D1F7481725
:1011F00059076A077B0708F4D7C0F101168A178AD6
:10120000108E118E84E090E024C081859285019734
:10121000B0E0A0E04601570129E0B694A794979466
:1012200087942A95D1F788219921AA21BB21892B5E
:101230008A2B8B2B09F0B8C0CF010E94BD044B0153
:101240005C01F2E08F169104A104B104D8F482E0AD
:1012500090E026960FB6F894DEBF0FBECDBFDF91AB
:10126000CF911F910F91FF90EF90DF90CF90BF90A3
:10127000AF909F908F907F906F905F904F903F9036
:101280002F9008952FEF82169206A206B20619F447
:1012900081E090E0DECFED81FE8183899489A5898C
:1012A000B68988169906AA06BB0608F46DC0672899
:1012B00009F4A3CFF1014289538964897589C10179
:1012C0000E9432074B015C0187E090E08114910499
:1012D000A104B10409F4BDCFF1E08F169104A1047B
:1012E000B10409F4B4CF2FEF82169206A206B2061B
:1012F00079F28D819E810E94B101892B49F6B50159
:10130000A4018D819E810E94C6002B013C01ED81CC
:10131000FE8143A654A665A676A6BF96FC83EB8302
:101320008D819E81815D9D4F11928E179F07E1F700
:101330001A821982ED81FE818185928529813A8107
:1013400028173907B8F401E010E0A3019201898160
:101350009A81280F391F411D511D6B817C8181812C
:101360000E948800892B31F4E981FA813196FA8351
:10137000E983E0CFED81FE818185928529813A81E3
:101380002817390709F084CFF101828A938AA48A49
:10139000B58AB501A4018D819E810E94C600F1012C
:1013A000668B778B808F918FF101C686D786E08A16
:1013B000F18A8D819E818F9696013170280F391F99
:1013C000338F228F90E080E044CF2F923F924F9254
:1013D0005F926F927F928F929F92AF92BF92CF92C5
:1013E000DF92EF92FF920F931F93CF93DF93FC0155
:1013F000C080D180FB018F0121912F32E1F32C3588
:10140000D1F3FC011682178210861186F801208123
:101410002F3109F008F472C0EC017C01FCE1EF0E01
:10142000F11C2C0187E2480E511C30E2232E45E0CE
:10143000342E36019FE2690E711CF70121924E167F
:101440005F06E1F790E080E070E060E048E050E0A7
:101450009B012F5F3F4FF801E60FF71FB081B132BC
:1014600080F0BF3219F0BC3509F05FC0F801E20F1F
:10147000F31F9F01201B310B41914F32D1F34C35AB
:10148000C1F3020F131F892B09F46BC08C8D853EAD
:1014900009F43C8E80E0B13208F484E08FA3A88088
:1014A000B980CE010E947B054C01892B09F081C0D7
:1014B0004E895F89688D798DC5010E94B9014C0103
:1014C000892B09F076C0EA8DFB8D8081882309F491
:1014D0006DC083858F738C83838583FD09C04BE04A
:1014E00050E0B701CF010E94B600892B09F461C01A
:1014F00070E060E0CE010E949308D6CF20E8FC01A6
:1015000027A3DF91CF911F910F91FF90EF90DF9074
:10151000CF90BF90AF909F908F907F906F905F9093
:101520004F903F902F900C947B05BE3209F475C00C
:1015300084179507B0F4B13830F0B03AB0F0E0E27B
:10154000EB0FED3190F0AB2EB12CEBE0F1E06191BF
:10155000662309F46BC0062E000C770BA616B7069F
:10156000B1F786E0882E912C31C06E5F7F4F200F3F
:10157000311FF901A081A034A0F3AF3720F0A7FFFD
:10158000F0CFAD3F70F79A012150310982179307D0
:1015900040F7F701E80FF91FB083FC013196EE0D1B
:1015A000FF1D0296A0839B01B90152CF24E0822E39
:1015B000912C8FA181149104E9F0F4E08F1691042D
:1015C00029F482FD03C095E0892E912CC401DF919E
:1015D000CF911F910F91FF90EF90DF90CF90BF9030
:1015E000AF909F908F907F906F905F904F903F90C3
:1015F0002F90089582FDEACF8C8184FFE4CF6E8521
:101600007F857170660D771DF60180810E9448010B
:101610006E837F838887998710CF4B30510509F4FB
:10162000A0CF88E090E04BE050E0BECF6FE96B0FB9
:101630006A3108F4B052F701E80FF91FB083019640
:10164000B3CF1F93CF93DF9300D000D000D0CDB79E
:10165000DEB79C838B837E836D83142F7A836983AB
:10166000CE0101960E94EE0097FD2DC0880F991FB4
:10167000FC01E855FD4F0190F081E02D309709F015
:101680001082EB81FC81309709F0108288559D4FC4
:101690002B813C81FC013183208390E080E0112389
:1016A00041F040E0BE016D5F7F4FCE0105960E9484
:1016B000380226960FB6F894DEBF0FBECDBFDF917D
:1016C000CF911F9108958BE090E0F3CF2F923F923E
:1016D0004F925F926F927F928F929F92AF92BF9242
:1016E000CF92DF92EF92FF920F931F93CF93DF93EE
:1016F000CDB7DEB7E3970FB6F894DEBF0FBECDBF10
:101700007CA76BA709E010E0009709F4ACC1F42EA8
:101710001C01842F8F738DA7482FBE01675D7F4FFB
:10172000CE018B960E9438028C01892B09F096C05D
:1017300089A59AA59A8389836BA57CA5CE0101967C
:101740000E94E5098C01892B29F488A587FF02C036
:1017500006E010E08F2D8C7109F42BC101151105E5
:1017600009F48AC00430110509F078C0E980FA80D4
:10177000CE0101960E947B058C01892B09F003C2E2
:101780004F89588D698D7A8DC7010E94B9018C01EE
:10179000892B09F0F8C1EB8DFC8D8081853E09F025
:1017A00061C04F89588D698D7A8DC7010E94B9013A
:1017B0008C01892B09F052C0EB8DFC8DCF018096F6
:1017C00011928E179F07E1F74BE050E0BE01635E78
:1017D0007F4F8B8D9C8D0E943D0181E0D701139638
:1017E0008C93BDA5B860BDA7EDA5E3FFEDC08B8CC4
:1017F0009C8CA9A4BAA4B401D5018C910E94480183
:101800006B017C01F4011686178681E2808B8AE4E5
:10181000818BEB8DFC8D80E28387EB8DFC8D128EAE
:10182000138ED5018C91833011F4148A158AEB8DB7
:10183000FC8D148E158E168E178E81E0F501838334
:10184000C114D104E104F10409F4BEC0F2E0CF16E2
:10185000D104E104F104C8F402E010E0D1011D92CA
:101860001C9201C1882309F49CCF61E070E0CE0195
:1018700001960E94930880CF8D81817109F087C104
:10188000F2FEB2CF08E010E0E9CF89819A819FA7EC
:101890008EA7FC0183899489A589B689C816D906C3
:1018A000EA06FB06C8F6D5019B968D919D910D9099
:1018B000BC91A02D88AB99ABAAABBBAB460157013D
:1018C000B501A40189819A810E94BD042B013C01CC
:1018D000411451046104710409F454C0B1E04B1681
:1018E00051046104710409F4B7CFEFEF4E165E06A0
:1018F0006E067E0609F441C1F2E08F169104A10440
:10190000B10408F4A9CFEEA5FFA583899489A58920
:10191000B68988169906AA06BB0608F09DCF00E096
:1019200010E09801B501A401CF010E9412068C01BC
:10193000892B09F093CFEEA5FFA587859089A18912
:10194000B28943895489658976898A019B0102504D
:1019500011092109310980179107A207B30750F433
:101960000196A11DB11D8787908BA18BB28B8481BD
:10197000816084835301420184169506A606B7064A
:1019800008F49ECF48A959A96AA97BA989A59AA557
:101990000E94B9018C01E9A5FAA5B1E0CB1AD108E2
:1019A000E108F108C386D486E586F686892B61F0C6
:1019B00055CF0115110509F051CF8D8184FDE0C08F
:1019C000F1FE02C080FDE3C0FDA5F3FF02C0F0649C
:1019D000FDA709A51AA5F80183A594A5A5A5B6A5F7
:1019E000F101848F958FA68FB78FEB8CFC8CF1A2C1
:1019F000E0A2B701D8018C910E9448014B015C0123
:101A0000F10186829782A086B186C7014C960E941A
:101A1000A4006B017C01D1011A96CD92DD92ED926A
:101A2000FC921D9711961C930E93F8018581968167
:101A300013969C938E931297FDA51E96FC931E976A
:101A40001F961C921F9758961D921D921D921C92D4
:101A50005B97F101108A118A128A138AFDA5F5FDA0
:101A60001CC010E000E0C801E3960FB6F894DEBF9A
:101A70000FBECDBFDF91CF911F910F91FF90EF90DF
:101A8000DF90CF90BF90AF909F908F907F906F909E
:101A90005F904F903F902F900895C114D104E104BE
:101AA000F104F9F25096CD92DD92ED92FC925397AB
:101AB000F80141845284712C612C39E0440C551C8E
:101AC000661C771C3A95D1F74C145D046E047F04B4
:101AD00008F04DC0B501A401D1018D919C910E94E7
:101AE000BD044B015C01C418D508E608F708B2E054
:101AF0008B169104A104B104E8F1EFEF8E169E0657
:101B0000AE06BE0609F701E010E0D10154968D92B1
:101B10009D92AD92BC9257970115110509F09ECE8A
:101B2000D701C6019170AA27BB27892B8A2B8B2B43
:101B300009F497CFB501A40189A59AA50E94C60012
:101B4000611571058105910509F486CE29E0F694A9
:101B5000E794D794C7942A95D1F7C60ED71EE81EEE
:101B6000F91EF101C08ED18EE28EF38E7CCF10E093
:101B700000E0CBCF02E010E0C8CF01E010E06ECE75
:101B800004E010E06BCE0430110509F067CE07E0E9
:101B900010E064CE2F923F924F925F926F927F92AD
:101BA0008F929F92AF92BF92CF92DF92EF92FF926D
:101BB0000F931F93CF93DF9300D000D0CDB7DEB744
:101BC0007C014B015A013C832B83F9011182108265
:101BD000BE016F5F7F4F0E941101009709F067C03F
:101BE000F701878590E0009709F061C0868581FF45
:101BF00083C180899189A289B389AC01BD014A0D55
:101C00005B1D611D711D481759076A077B0718F492
:101C10005C01A094B094A114B10409F466C1F70169
:101C200080899189A289B389AC01BD015170662771
:101C30007727452B462B472B09F02BC1E981FA81E9
:101C40000185128501501109AC01BD01E9E07695CD
:101C5000679557954795EA95D1F704231523011504
:101C6000110509F05DC0F701892B8A2B8B2BB1F58B
:101C70006681778180859185611571058105910562
:101C800061F440E050E0BA01C7010E9432076115DB
:101C900071058105910509F428C16130710581053F
:101CA000910509F582E0F701878782E090E00F90C7
:101CB0000F900F900F90DF91CF911F910F91FF9098
:101CC000EF90DF90CF90BF90AF909F908F907F90DC
:101CD0006F905F904F903F902F9008954489558961
:101CE00066897789D1CF6F3FFFEF7F078F079F0707
:101CF00031F481E0F701878781E090E0D8CFF701E8
:101D0000648B758B868B978B46805780608471843B
:101D100045284628472821F4668377838087918762
:101D200089819A81FC0143A454A465A476A4F70197
:101D3000408D518D628D738D44165506660677066B
:101D400009F482C069807A80F701448955896689DF
:101D50007789C3010E94C60061157105810591054F
:101D600009F4A0CF1B012C01200E311E411C511C77
:101D70006501CD2CDD24C694C114D10409F46AC0D8
:101D8000F3018185928598012C0D3D1D82179307E3
:101D900018F46C01C01AD10A8601A2019101B401A4
:101DA000F30181810E948800892B09F0A2CF8981EB
:101DB0009A81FC0143A554A565A576A5421953094E
:101DC0006409750930E020E0401751076207730786
:101DD00070F4542F4427550FB401640F751F40E071
:101DE00052E08F960E943D01E981FA811382DC2C3A
:101DF000CC24DD0CAC18BD08EB81FC818081918185
:101E00008C0D9D1D918380838C0C9D1CF701808916
:101E10009189A289B3898C0D9D1DA11DB11D808B57
:101E2000918BA28BB38B428553856485758548174A
:101E300059076A077B0710F4AC01BD01F70142871F
:101E4000538764877587E7CE0E94B101892B09F417
:101E500079CF4FCFF7014089518962897389828593
:101E60009385A485B585481759076A077B0760F0F5
:101E7000C3010E94B101892B09F03BCFE981FA81AE
:101E800023A634A645A656A6F701208E318E428E93
:101E9000538EF70180899189917020E032E0281BF0
:101EA000390B65012A153B0508F46901F701408DDE
:101EB000518D628D738D89819A810E94B901892B20
:101EC00009F017CF29813A81215D3F4FF7018089C1
:101ED00091899170A601B401820F931F0E943D0168
:101EE000E981FA8121E0238385CFF701868580642B
:101EF000868790E080E0DBCE87E090E0D8CECF927E
:101F0000DF92EF92FF920F931F93CF93DF9300D056
:101F1000CDB7DEB76C01BE016F5F7F4F0E9411012C
:101F2000009709F0CFC0D6011E962C911E9726FF70
:101F3000C9C05C964D915D916D917C915F9789814F
:101F40009A810E94B901009709F0BCC0D601909611
:101F5000ED91FC91919783858062838716964D91D0
:101F60005D916D917C9119972D913C91428F538F8A
:101F7000D9012C91233029F4CB01AA27BB27848BCC
:101F8000958BD6011A963C911A971B962C911B970C
:101F90001C969C911C971D968C91348F258F968F43
:101FA000878F168A178A81E2808F8AE4818F128A4E
:101FB000138AE980FA8081E0F7018383C7010E94D8
:101FC0005D01009709F077C0D7018C91833009F04B
:101FD00064C014968C91813009F05FC0B701615DD7
:101FE0007F4FFB01C701815D9D4F11928E179F07A7
:101FF000E1F785E5F701E35DFD4F80838AEA3196DD
:10200000808382E5F70187A780AB81E681AB91E40D
:1020100092AB22E7ED5EFD4F20833196208331960F
:10202000908331968083D7011F963C911F975096DD
:102030002C91509751969C91519752968C91529712
:102040003196308331962083319690833196808308
:10205000F7013385248595858685E55EFD4F3083C0
:102060003196208331969083319680835B962D91B3
:102070003D914D915C915E972F5F3F4F4F4F5F4F6A
:10208000F70123A734A745A756A701E010E08181F7
:102090000E948800D70114961C9250E040E060E056
:1020A000F70181810E949A0031E020E0892B09F438
:1020B00030E0832F922FD6011E962C911E972F7BF6
:1020C0001E962C930F900F90DF91CF911F910F913F
:1020D000FF90EF90DF90CF9008951CBC84B1877D76
:1020E00084B908958EBD0DB407FEFDCF8EB5089559
:1020F0006AE070E00E94EB206093AB028FEF0E94D9
:1021000072108F3F39F08091AB028111F7CF90E0D0
:1021100080E0089581E090E008958DEA92E00E94C9
:102120002D168FEF0C947210CF93DF938DEA92E00F
:102130000E941B168FEF0E94721084EF91E00E94A4
:102140007810EC01892B31F40E948D10CE01DF91C3
:10215000CF910895C1E0D0E0F9CFFF920F931F9384
:10216000CF93DF93C82FD42F152F062FF72E87FF7D
:1021700009C040E050E0BA0187E30E94AD10823010
:1021800048F5CF77CC3061F58C2F80640E947210B7
:102190008F2D0E947210802F0E947210812F0E943A
:1021A00072108D2F0E94721085E9CC2321F087E8F0
:1021B000C83009F081E00E947210CC3019F48FEF22
:1021C0000E947210CAE08FEF0E94721087FF02C057
:1021D000C150C9F7DF91CF911F910F91FF900895E2
:1021E0000E948D100E949410892B71F68FEFF2CF10
:1021F0000F931F93CF93DF938C01EB0184E18093C6
:10220000AC028FEF0E9472108F3F39F48091AC02C4
:102210008111F7CF90E080E01CC08E3FD9F7F80124
:102220008FEF8EBD0DB407FEFDCF9EB590838EBDA2
:102230000DB407FEFDCF9EB591832297329620976D
:1022400081F78FEF0E9472108FEF0E94721081E071
:1022500090E0DF91CF911F910F9108959C013E5F17
:10226000FC0140814EBD0DB407FEFDCFFC01418154
:102270004EBD0DB407FEFDCF02968217930781F77E
:102280008FEF0E9472108FEF0E9472108FEF0E94EA
:102290007210282F2F7181E090E0253011F090E02E
:1022A00080E00895ADEAB2E011969C938E939C0174
:1022B00094E0359527959A95E1F7E22FEE0FE20F1E
:1022C00091E09E0F12969C931297EE5F1396EC93FB
:1022D0001397877014968C931497F0E090A121E0E7
:1022E00030E0A90101C0440F8A95EAF7892F842BB9
:1022F00080A31296EC911297F0E080A114969C9125
:1023000001C0220F9A95EAF7282B20A30895CF92B7
:10231000DF92EF92FF920F931F93CF93DF9300D042
:1023200000D0CDB7DEB70E946D108AE08093AC027A
:102330008091AC028111FCCF8091000181FF0FC020
:10234000809100010F900F900F900F90DF91CF912F
:102350001F910F91FF90EF90DF90CF90089584B17F
:10236000886284B983E58CBD8CB58F7A8CBD8CB5C1
:1023700083608CBD8CB580658CBD1AE08FEF0E94A8
:1023800072101150D9F740E050E0BA0180E00E948D
:10239000AD10082F8130B9F010E01093AA020E940E
:1023A0008D10112309F482C0809100018E7F8093EB
:1023B00000018CB58F7A8CBD8CB58C7F8CBD8CB5B3
:1023C00080658CBDBDCF84E68093AC024AEA51E0C3
:1023D00060E070E088E00E94AD10813009F040C0FC
:1023E0008E010F5F1F4F6E0185E0C80ED11C780172
:1023F0008FEF0E947210F70181937F01EC15FD05AC
:10240000B9F78B81813041F68C818A3A29F6809127
:10241000AC02882349F040E050E060E070E489EAD3
:102420000E94AD108111F3CF8091AC02882309F492
:10243000B3CF40E050E0BA018AE30E94AD108111B1
:10244000ABCF8FEF0E947210F80181938F01EE16CF
:10245000FF06B9F7898114E086FF9FCF1CE09DCF6E
:1024600040E050E0BA0189EA0E94AD1011E08230EC
:1024700010F412E009EA8091AC02882341F040E0B8
:1024800050E0BA01802F0E94AD108111F4CF8091ED
:10249000AC02882309F480CF40E052E060E070E0B5
:1024A00080E10E94AD10811177CF77CF0E946D102F
:1024B00047CF809100010895EF92FF921F93CF9331
:1024C000DF937C01E901209751F18091000180FDAB
:1024D00029C08091AA0283FD07C089E0440F551FDF
:1024E000661F771F8A95D1F711E1C230D10508F038
:1024F00012E1812F0E94AD10811122C060E072E0D4
:10250000C7010E94F810892B99F08EEFF81A2197D5
:10251000A9F7123179F00E948D1080E001C084E0AB
:1025200090E015C083E0FCCF0E948D1081E0F8CFD1
:102530001231D1F740E050E0BA018CE00E94AD10BA
:102540000E948D1081E090E0CD2B09F480E0DF91B6
:10255000CF911F91FF90EF900895CF92DF92EF926D
:10256000FF920F931F93CF93DF938C016A017B013E
:10257000E901209709F46EC08091000180FD6CC0D4
:102580008091000182FD6AC08091AA0283FD07C08C
:1025900099E0CC0CDD1CEE1CFF1C9A95D1F7C130E4
:1025A000D105D9F4B701A60188E10E94AD108111CF
:1025B0004DC084EF91E00E947810892BB9F18EEF25
:1025C0000E947210C8010E942E11892B09F43EC08E
:1025D0000E948D1080E090E030C0867031F0AE0136
:1025E00070E060E087E90E94AD10B701A60189E1C3
:1025F0000E94AD1081111AC084EF91E00E94781002
:10260000892B59F08CEF0E947210C8010E942E1184
:10261000892B19F01E5F219779F784EF91E00E94D2
:102620007810892B99F08DEF0E9472100E948D1006
:1026300081E090E0CD2B09F480E0DF91CF911F91F4
:102640000F91FF90EF90DF90CF9008950E948D1032
:1026500081E0C1CF84E0BFCF83E0BDCF82E0BBCFBC
:10266000CF92DF92EF92FF920F931F93CF93DF935E
:10267000CDB7DEB760970FB6F894DEBF0FBECDBF03
:102680009091000190FDC1C28B01833309F4E5C133
:10269000E0F4833009F400C140F4882309F481C0D8
:1026A000813009F486C004E00EC0873009F4F6C119
:1026B000823309F4CCC18430B1F78091AA028670CC
:1026C00009F068C101E010E0B2C1863309F4D8C155
:1026D000D8F4843309F4CFC1853329F740E050E0C2
:1026E000BA018AE30E94AD1081116BC07801F4E059
:1026F000EF0EF11C8FEF0E947210F80181938F0191
:10270000EE15FF05B9F797C0883309F42CC208F419
:10271000CDC1893341F6FB014381548165817681C6
:1027200089E0440F551F661F771F8A95D1F774689B
:10273000808190E0B0E0A0E02CE1880F991FAA1FF3
:10274000BB1F2A95D1F7482B592B6A2B7B2B8281F3
:1027500090E0B0E0A0E0482B592B6A2B7B2B81E363
:102760000E94AD1081112DC08FEF0E9472108EEF6C
:102770000E947210F80181810E94721001E012E043
:102780008FEF0E94721001501109D1F78FEF0E9454
:1027900072108F7101E010E0853049F00E948D10B9
:1027A00046C10E94941001E010E0892BB9F300E0CB
:1027B000F5CF40E050E0BA0189E00E94AD108823D7
:1027C00011F001E039C060E170E0CE0101960E9495
:1027D000F810892BB1F3698170E036E07595679543
:1027E0003A95E1F749852A8588856130710531F58B
:1027F00050E0542F4427240F352F311D90E0B0E0D6
:10280000A0E0DC019927882788279927AF73BB2789
:102810000196A11DB11D820F931FA11DB11D2AE0BC
:10282000880F991FAA1FBB1F2A95D1F7F801808333
:102830009183A283B38300E010E0B0CFF4E08F9FD8
:10284000C0011124019650E066E0559547956A95C0
:10285000E1F7840F951F4F8150E0542F4427550F07
:10286000550F44275C70840F951FB0E0A0E03E81B7
:102870003F704B85441F4427441F340F3E5F220F97
:102880002670230F2950330B04C0880F991FAA1FED
:10289000BB1F2A95D2F7CACF8091AA0240E050E030
:1028A000BA0182FF21C08DE80E94AD10811189CF4D
:1028B0008FEF0E94721060E170E0CE0101960E94DD
:1028C000F810892B09F47DCF50E3F52E8FEF0E948D
:1028D0007210FA94F110FACF2B8522952F7080E1B7
:1028E00090E0A0E0B0E0D0CF89E00E94AD1081116F
:1028F00068CF60E170E0CE0101960E94F810892B4C
:1029000009F45FCF8B8590E02C853091AA0231FFCE
:102910001DC0880F991F8E779927221F2227221FFB
:1029200030E02F5F3F4F820F931F2E8530E046E04F
:10293000359527954A95E1F72150310902C0880F56
:10294000991F2A95E2F7B0E0A0E070CFF8E02F9F42
:10295000A001112448715527229526952770240F30
:10296000352F311D2F5F3F4F95958795959587950D
:102970008F7199270196289FA001299F500D389F9C
:10298000500D112470E060E0F801408351836283B0
:10299000738351CFBE016F5F7F4F83E30E9430137B
:1029A000892B09F08FCE898190E0F6E09595879587
:1029B000FA95E1F7892B19F48B8586FF83CEF80110
:1029C0004081518162817381C480D580E680F78027
:1029D0008091AA0283FD0EC039E0440F551F661F87
:1029E000771F3A95D1F7E9E0CC0CDD1CEE1CFF1CFB
:1029F000EA95D1F780E20E94AD10811163CEB70154
:102A0000A60181E20E94AD1081115CCE40E050E051
:102A1000BA0186E20E94AD10811154CE80E395E7A1
:102A20000E94781001E010E0892B09F000E0C80155
:102A300060960FB6F894DEBF0FBECDBFDF91CF9189
:102A40001F910F91FF90EF90DF90CF9008958091AC
:102A5000AA02FB01808300E036CE40E050E0BA01DC
:102A600089E00E94AD1060E170E08111AACEC8013A
:102A70000E94F81098CE40E050E0BA018AE0F1CF11
:102A800040E050E0BA018DE80E94AD10811199CE6E
:102A90008FEF0E94721060E470E0E9CF0E946D1029
:102AA00080910001816080930001D5CFFB014381BB
:102AB00054816581768139E0440F551F661F771F69
:102AC0003A95D1F77068808190E0B0E0A0E02CE109
:102AD000880F991FAA1FBB1F2A95D1F7482B592B86
:102AE0006A2B7B2B8181928101979170B0E0A0E0ED
:102AF000482B592B6A2B7B2B80E30E94AD10811150
:102B000060CE84E68093AC028FEF0E9472108F3FFC
:102B100029F48091AC028111F7CF53CE8E3F09F09A
:102B200050CEF801E780F084C180D280CE0CDF1C4B
:102B3000EC14FD0439F08FEF0E947210F7018193BD
:102B40007F01F6CFF8018181928102E012E0081B3B
:102B5000190B0115110509F46ECE8FEF0E9472104A
:102B600001501109F6CFFB014381548165817681C3
:102B700039E0440F551F661F771F3A95D1F77068EB
:102B8000808190E0B0E0A0E02CE1880F991FAA1F9F
:102B9000BB1F2A95D1F7482B592B6A2B7B2B8181A0
:102BA000928101979170B0E0A0E0482B592B6A2BDD
:102BB0007B2B81E30E94AD10811103CE8FEF0E9429
:102BC00072108EEF0E947210F801E780F084C180CD
:102BD000D280CE0CDF1CEC14FD0431F0F7018191A2
:102BE0007F010E947210F7CFF8018181928102E08B
:102BF00012E0081B190B8FEF0115110509F4C7CD61
:102C00000E94721001501109F6CF03E05CCD809153
:102C1000AC02882319F081508093AC028091AB0202
:102C2000882319F081508093AB0280910001897F45
:102C3000809300010895DC011396EC911397F0E066
:102C400020A114963C9181E090E001C0880F3A9554
:102C5000EAF78095822380A30895DC011396EC9116
:102C60001397F0E090A114968C9121E030E001C020
:102C7000220F8A95EAF7892F822B80A30895FC0101
:102C8000158280858E7F808780818C7F8B7F80837B
:102C90008FE090E0978386831382148212821182E0
:102CA0000895FC0190917A0080917B0030917C0026
:102CB000887F6F307105D1F49F7D3F7350E4459F4D
:102CC000D00111243A2B987F922B30937C00909363
:102CD0007A0080937B00778366834483238380819B
:102CE000826080831282118281E008959062862B37
:102CF000E4CF22E030E0FC013283218380E00895BC
:102D0000FC01ACE7B0E09C91907F962B9C9365838F
:102D10001282118281E00895FC01AAE7B0E08C9153
:102D200088608C938081846080831282118281E02C
:102D30000895EAE7F0E0208120612083FC011282FF
:102D4000118281E00895FC01AAE7B0E08C918068CF
:102D50008C938081816080831282118281E008954A
:102D60001F920F920FB60F9211242F933F934F9300
:102D70005F936F937F938F939F93AF93BF93EF93E3
:102D8000FF930E94BD20FF91EF91BF91AF919F9162
:102D90008F917F916F915F914F913F912F910F9004
:102DA0000FBE0F901F90189582EB92E00C943F1687
:102DB00008951F920F920FB60F9211242F933F93F5
:102DC0004F935F936F937F938F939F93AF93BF9333
:102DD000EF93FF930E94D816FF91EF91BF91AF91AF
:102DE0009F918F917F916F915F914F913F912F9123
:102DF0000F900FBE0F901F901895EBEBF2E0118231
:102E000080818E7F808313821282089508951F929D
:102E10000F920FB60F9211242F933F934F935F930E
:102E20006F937F938F939F93AF93BF93EF93FF9392
:102E30000E940617FF91EF91BF91AF919F918F91E3
:102E40007F916F915F914F913F912F910F900FBEA6
:102E50000F901F901895EFEBF2E0118280818E7F2A
:102E6000808313821282089508951F920F920FB6E5
:102E70000F9211242F933F934F935F936F937F9300
:102E80008F939F93AF93BF93EF93FF930E94341759
:102E9000FF91EF91BF91AF919F918F917F916F9132
:102EA0005F914F913F912F910F900FBE0F901F9008
:102EB0001895E3ECF2E0118280818E7F808313828B
:102EC0001282089508951F920F920FB60F92112447
:102ED0002F933F934F935F936F937F938F939F9322
:102EE000AF93BF93EF93FF930E946217FF91EF910F
:102EF000BF91AF919F918F917F916F915F914F9112
:102F00003F912F910F900FBE0F901F901895E7ECF7
:102F1000F2E0118280818E7F808313821282089575
:102F200008951F920F920FB60F9211242F933F9383
:102F30004F935F936F937F938F939F93AF93BF93C1
:102F4000EF93FF930E949017FF91EF91BF91AF9184
:102F50009F918F917F916F915F914F913F912F91B1
:102F60000F900FBE0F901F901895EBECF2E01182BE
:102F700080818E7F8083138212820895FC0184B544
:102F800095B58C7F262F2370822B262F30E0359528
:102F900027953595279573E0220F331F7A95E1F732
:102FA000977F922B987F942B84BD95BD628341833C
:102FB0008081816080831482138281E00895089566
:102FC00008951F920F920FB60F9211242F933F93E3
:102FD0004F935F936F937F938F939F93AF93BF9321
:102FE000EF93FF930E94E120FF91EF91BF91AF918A
:102FF0009F918F917F916F915F914F913F912F9111
:103000000F900FBE0F901F9018951F920F920FB642
:103010000F9211242F933F934F935F936F937F935E
:103020008F939F93AF93BF93EF93FF930E94DF170C
:10303000FF91EF91BF91AF919F918F917F916F9190
:103040005F914F913F912F910F900FBE0F901F9066
:1030500018951F920F920FB60F9211242F933F9342
:103060004F935F936F937F938F939F93AF93BF9390
:10307000EF93FF930E94E017FF91EF91BF91AF9103
:103080009F918F917F916F915F914F913F912F9180
:103090000F900FBE0F901F901895EFECF2E0118289
:1030A000128280818E7F8083148213820895CF9351
:1030B000DF93FC01C0E8D0E08881A1E8B0E09C91FA
:1030C0008C7F262F2370822B262F30E03595279575
:1030D0003595279573E0220F331F7A95E1F7977E98
:1030E000922B987F942B88839C9362834183808169
:1030F000816080831482138281E0DF91CF910895F3
:103100000895089508951F920F920FB60F921124FB
:103110002F933F934F935F936F937F938F939F93DF
:10312000AF93BF93EF93FF930E94E620FF91EF913F
:10313000BF91AF919F918F917F916F915F914F91CF
:103140003F912F910F900FBE0F901F9018951F92D7
:103150000F920FB60F9211242F933F934F935F93CB
:103160006F937F938F939F93AF93BF93EF93FF934F
:103170000E948018FF91EF91BF91AF919F918F9125
:103180007F916F915F914F913F912F910F900FBE63
:103190000F901F9018951F920F920FB60F92112447
:1031A0002F933F934F935F936F937F938F939F934F
:1031B000AF93BF93EF93FF930E948118FF91EF911C
:1031C000BF91AF919F918F917F916F915F914F913F
:1031D0003F912F910F900FBE0F901F9018951F9247
:1031E0000F920FB60F9211242F933F934F935F933B
:1031F0006F937F938F939F93AF93BF93EF93FF93BF
:103200000E948218FF91EF91BF91AF919F918F9192
:103210007F916F915F914F913F912F910F900FBED2
:103220000F901F901895E4EDF2E0118212828081D8
:103230008E7F8083148213820895089508950895DF
:103240001F920F920FB60F9211242F933F934F931B
:103250005F936F937F938F939F93AF93BF93EF93FE
:10326000FF930E941D19FF91EF91BF91AF919F9124
:103270008F917F916F915F914F913F912F910F901F
:103280000FBE0F901F9018951F920F920FB60F92BE
:1032900011242F933F934F935F936F937F938F935B
:1032A0009F93AF93BF93EF93FF930E941E19FF91DB
:1032B000EF91BF91AF919F918F917F916F915F91AE
:1032C0004F913F912F910F900FBE0F901F90189527
:1032D0001F920F920FB60F9211242F933F934F938B
:1032E0005F936F937F938F939F93AF93BF93EF936E
:1032F000FF930E941F19FF91EF91BF91AF919F9192
:103300008F917F916F915F914F913F912F910F908E
:103310000FBE0F901F901895E9EDF2E01182128216
:1033200080818E7F808314821382089527E030E0AD
:10333000FC013383228380E0089527E030E0FC0124
:103340003383228380E0089527E030E0FC0133835B
:10335000228380E00895FC01962F990F8485817067
:10336000892B8487661F6627661F9585987F7370F3
:10337000872F880F792F762B782B40FB73F9758771
:103380008681816086831582148281E0089585E0BC
:1033900090E00895FC01848195810895FC018EE1FF
:1033A00091E091838083108A17868685887F86873F
:1033B000118A8289807C828B868114868E7F8D7FA4
:1033C000868388EF90E09187808784E190E09387FF
:1033D000828717821586158214820895CF92DF9214
:1033E000EF92FF92FC012285338590911603917034
:1033F0004FEF5FEFBA012115310579F091111DC032
:1034000044E050E0509321034093200340E050E01B
:10341000BA01420F531F611D711D24E030E091116C
:1034200019C030932103209320038091BC0080FDBC
:10343000F6CF1582148281E023C04091170350918A
:1034400018036091190370911A03109221031092CE
:103450002003DFCFC0901703D0901803E09019032A
:10346000F0901A0310922103109220034C155D0571
:103470006E057F05D0F683E490E09583848380E039
:10348000FF90EF90DF90CF900895FC0186818D7FB3
:10349000868388EF90E09187808785EA8093BC00DF
:1034A0001582148281E00895CF93DF93FC01968109
:1034B00091FB882780F991FF13C0DB0130E020E009
:1034C000241748F42F5F3F4FC785D089C20FD31F01
:1034D00098819D93F5CF15821482DF91CF91089545
:1034E00020E430E035832483F8CFBF92CF92DF927F
:1034F000EF92FF920F931F93CF93DF93EC018C8594
:1035000080FBDD24D0F880FD0FC084E090E09D8337
:103510008C838D2DDF91CF911F910F91FF90EF90B4
:10352000DF90CF90BF900895EE2049F0011511056E
:1035300031F481E190E09D838C83D12CEACFC22EBF
:10354000B42EF62ECE010E94EE19D82E8823A9F3B0
:10355000EF85F8898F2D880F8083EF85F889C182E8
:10356000B11023C0D80190E080E08E1540F42D9179
:10357000EF85F889E80FF91F22830196F6CFE394CF
:10358000E3949E2D9295907F8D858F70892B8D87EA
:103590008E2D829587709E85987F892B8E87CE0190
:1035A0000E94451A1D821C82B4CF8D858F70806267
:1035B0008D878E85887F8E87CE010E94451ACE0129
:1035C0000E94EE19882309F4B8CFEF85F8896F2D92
:1035D000660F6160608381E08E0D282F2295207F29
:1035E0009D859F70922B9D87829587709E85987F81
:1035F000892B8E87CE010E94451ACE010E94EE19BA
:10360000882309F49ACF4E2DB801CE010E94541A96
:103610008111C8CF92CFEF92FF920F931F93CF9358
:10362000DF93EC018E8180FBFF24F0F880FD0CC05D
:1036300081E490E09D838C838F2DDF91CF911F914A
:103640000F91FF90EF9008959D8593FF06C082E053
:1036500090E09D838C83F12CEFCFE22E8A01262F00
:103660006C856695979599279795692B41E0CE01D2
:103670000E94751A882379F31D821C82DDCFEF9298
:10368000FF920F931F93CF93DF93EC018E8180FB0A
:10369000FF24F0F880FD0CC081E490E09D838C83D2
:1036A0008F2DDF91CF911F910F91FF90EF90089593
:1036B0009D8593FF06C082E090E09D838C83F12C72
:1036C000EFCFE22E8A01262F6C8566959795992774
:1036D0009795692B40E0CE010E94751A882379F3F3
:1036E0001D821C82DDCFFC018091B9008C7F883265
:1036F00049F018F5803121F0883121F0883011F53A
:103700001092DE029091DE028585282F22952F707F
:10371000868587708295807F822B981730F5078485
:10372000F089E02D81E0890F8093DE02E90FF11D21
:1037300080818093BB0085E83CC0803449F138F437
:103740008833D1F18091B900878384E032C080351D
:1037500089F08835B9F78091BB00A091DE022785FA
:103760003089A20FB32FB11D8C938681826086832E
:1037700084E91FC08091BB0027853089A091DE02BB
:1037800091E09A0F9093DE02A20FB32FB11D8C939C
:103790002091DE028585982F92959F70868587708F
:1037A0008295807F892B8150990B281719061CF66A
:1037B00085EC8093BC00089585EAFBCF1F920F92A1
:1037C0000FB60F9211242F933F934F935F936F93F4
:1037D0007F938F939F93AF93BF93EF93FF938FED5F
:1037E00092E00E94731BFF91EF91BF91AF919F9167
:1037F0008F917F916F915F914F913F912F910F909A
:103800000FBE0F901F9018958FED92E00C94CE197B
:103810009091C00095FFFCCF8093C60090E080E0BF
:1038200008952F923F924F925F926F927F928F9264
:103830009F92AF92BF92CF92DF92EF92FF920F933F
:103840001F93CF93DF9300D000D0CDB7DEB77C01BC
:103850002091C0003091C1008091C2004091C4000D
:103860005091C50019821A821B821C82D7011B96B7
:103870009C91992361F1913061F18F7CF7019285E0
:10388000913049F1923049F1D32EE894D2F8897FF2
:10389000D70114969C91923061F108F5913039F17D
:1038A000217EC22E182F1E73D7011596EC9101E0D0
:1038B000E83010F5F0E0E15AF34E0C9421217B1C26
:1038C000CC1CD01CD31CD51CD91CDB1CDF1C877F57
:1038D000D4CF8860D2CF8063D7CF8062D5CF9330EA
:1038E00021F09730E9F66894D2F88660D9CF8260EB
:1038F000D7CF8460D5CF00E1BE016F5F7F4F8CE0F2
:1039000093E00E94FC1EF701268137814085518596
:10391000A02FB0E00E9427219B01AC0169817A8130
:103920008B819C810E94FF2019012A01F1E02F1A4E
:10393000310841085108C092C000D092C1001093D4
:10394000C2009101A20160E070E080E090E008E038
:103950000E9434212F702093C5002092C400D7010B
:1039600013961C921E92129781E00F900F900F9069
:103970000F90DF91CF911F910F91FF90EF90DF900B
:10398000CF90BF90AF909F908F907F906F905F90FF
:103990004F903F902F9008956894C1F808E0ACCF05
:1039A000106402E0A9CF1164FCCF8C73182F106C47
:1039B000F8CF126CF6CF8C73182F116CF2CF136CFA
:1039C000F0CFFC018081877F8083683030F08CE00D
:1039D00090E09383828380E008956583138212824E
:1039E00081E00895FC018081877F808341158BE40D
:1039F000580761057105D1F0C8F5403689E05807D0
:103A00006105710599F0D0F4403B84E058076105E9
:103A1000710561F0483087E058076105710531F0A4
:103A2000483582E0580761057105D1F44683578314
:103A3000608771871382128281E00895403885E2A1
:103A400058076105710591F3403488E35807610513
:103A5000710561F3403C82E158076105710531F35E
:103A600080EB90E09383828380E00895411581EE9E
:103A7000580761057105D1F298F4411586E9580798
:103A80006105710599F2403C8AED580761057105A1
:103A900069F2403880E758076105710509F7C6CF1C
:103AA000411584EF580781E06807710509F4BECF1E
:103AB00040F4411582EC580781E06807710581F6F2
:103AC000B5CF411584E8580783E06807710509F40C
:103AD000ADCF411588EE580783E06807710509F0FE
:103AE000BFCFA4CFDC018C91877F8C93EFEAE60FE8
:103AF000EA3408F04FC0F0E0E058F24E0C94212177
:103B0000D21DD21DCA1DCA1DD21DD21DCA1DCA1D5D
:103B1000D21DD21DCA1DCA1DCA1DCA1DCA1DCA1D5D
:103B2000D21DD21DCA1DCA1DD21DD21DCA1DCA1D3D
:103B3000D21DD21DCA1DCA1DCA1DCA1DCA1DCA1D3D
:103B4000D21DD21DCA1DCA1DD21DD21DCA1DCA1D1D
:103B5000D21DD21DCA1DCA1DCA1DCA1DCA1DCA1D1D
:103B6000D21DD21DCA1DCA1DD21DD21DCA1DCA1DFD
:103B7000D21DD21DCA1DCA1DCA1DCA1DCA1DCA1DFD
:103B8000D21DD21DCA1DCA1DD21DD21DCA1DCA1DDD
:103B9000D21DD21D83EB90E013969C938E931297C7
:103BA00080E00895862F8370813029F0823079F18A
:103BB0008FEF9FEFF1CF1B961C921B9770E0CB010C
:103BC000959587959595879583709927813091056F
:103BD00019F18230910529F1892B51F71A961C921F
:103BE0001A9784E0759567958A95E1F767307105B6
:103BF00029F1CCF481E066307105E1F014961C9255
:103C0000149713961C921E92129781E0089581E0FA
:103C10001B968C931B97D2CF81E01A968C931A97A0
:103C2000E0CF82E0FACF6830710551F087E069306B
:103C3000710521F714968C931497E3CF82E0FACFA5
:103C400083E0F8CF0F931F93CF93DF93EC01122FF4
:103C50000E94F21C8823F9F0612FCE010E94E11C22
:103C60008823C9F0602FCE010E94721D882399F02D
:103C700088E09CE19093FB028093FA021092FD028F
:103C80001092FC0282E08093F5021092FF021092E3
:103C9000FE021B821A82DF91CF911F910F9108952E
:103CA0000895089508951F920F920FB60F92112450
:103CB0002F933F934F935F936F937F938F939F9334
:103CC000AF93BF93EF93FF930E94501EFF91EF912C
:103CD000BF91AF919F918F917F916F915F914F9124
:103CE0003F912F910F900FBE0F901F9018951F922C
:103CF0000F920FB60F9211242F933F934F935F9320
:103D00006F937F938F939F93AF93BF93EF93FF93A3
:103D10000E94521EFF91EF91BF91AF919F918F91A1
:103D20007F916F915F914F913F912F910F900FBEB7
:103D30000F901F9018951F920F920FB60F9211249B
:103D40002F933F934F935F936F937F938F939F93A3
:103D5000AF93BF93EF93FF930E94511EFF91EF919A
:103D6000BF91AF919F918F917F916F915F914F9193
:103D70003F912F910F900FBE0F901F9018950F93AA
:103D800001E820E040E855E260E070E080E093E088
:103D90000E94221E0F910895FC0182858E7F8287EA
:103DA0001682178210861186108211821282138267
:103DB000158214821786108A118A128A1386148635
:103DC0001586168693899E7F938B41155105610553
:103DD000710529F483E390E0958B848B08954083EB
:103DE00051836283738346835783608771878160C1
:103DF0008287158A148A0895CF93DF93FC01611599
:103E0000710541F481E190E0958B848B80E0DF9136
:103E1000CF91089586819781A085B185EB01888334
:103E20009983AA83BB83158A148A81E0F0CF40E08E
:103E300054E264EF70E08CE093E00C94CC1ECF93DE
:103E4000DF93CDB7DEB7C359D2400FB6F894DEBFCB
:103E50000FBECDBFCE56DD4F19821882C259D24057
:103E60001092230310922203579A5F98539A549A00
:103E7000559A569A40E051EE60E070E080E093E0A1
:103E80000E94F21C61E880E093E00E94721D80E0D5
:103E900093E00E94111C8091C10088608093C10052
:103EA00082EF92E090932903809328039093270355
:103EB0008093260390932503809324038EE291E060
:103EC0009F938F930E945E2178948BE987BD45E094
:103ED00062E08FEC92E00E94BE17A99A80916E007A
:103EE000826080936E008BE491E09F938F930E9499
:103EF0005E2182E190E00E94521141E06CE172E0AB
:103F0000CE0101960E94210B0F900F900F900F9001
:103F1000009769F09F938F9388E691E09F938F932A
:103F20000E945E210F900F900F900F90FFCF86E9B7
:103F300091E09F938F930E945E2181E090E0CE56A6
:103F4000DD4F99838883C259D2400F900F908E0124
:103F50000C571D4F31EBE32E31E0F32ECE56DD4FE3
:103F600088819981C259D240803127E2920728F591
:103F70009F938F93FF92EF921F930F930E94742150
:103F800046E0B801CE018E599D4F0E94660B0F90FE
:103F90000F900F900F900F900F90892B71F0CE56CD
:103FA000DD4F88819981C259D2400196CE56DD4FAE
:103FB00099838883C259D240D1CF1F930F938EEB40
:103FC00091E09F938F930E945E2160E082EB92E0EC
:103FD0000E94801627E043E065E070E082EB92E00B
:103FE0000E94511682EB92E00E94A31661E082EBE0
:103FF00092E00E94791682EB92E00E94991682EB81
:1040000092E00E948C168BED91E09F938F930E941B
:104010005E212FB7F89484E294EF90938900809307
:1040200088002FBF2FB7F89490938B0080938A005D
:104030002FBF44E064E084ED92E00E945718B19AEB
:1040400080916F00826080936F0085EF91E09F9375
:104050008F930E945E210FB6F894DEBF0FBECDBFD6
:1040600082E1C82E82E0D82E8E01005D1D4F96E4BD
:10407000A92E92E0B92E20E9E22E22E0F22E8091C4
:10408000220380FFFCCF80912203982F9695809188
:104090002303879588278795892B909123039695ED
:1040A00093709F938F93DF92CF921F930F930E94F1
:1040B00074211F930F930E945E215E9AF801019074
:1040C0000020E9F73197AF01401B510B9E012E569E
:1040D0003D4FB801CE018E599D4F0E94CA0D5E988A
:1040E0000FB6F894DEBF0FBECDBF009769F09F9367
:1040F0008F938DE192E09F938F930E945E210F90AA
:104100000F900F900F90FFCFCD56DD4F8881C35990
:10411000D2408F93CE56DD4F8881C259D2408F93C3
:10412000BF92AF920E945E215E9ACE018E599D4F42
:104130000E947F0F5E980F900F900F900F90009746
:1041400069F09F938F9388E692E09F938F930E94EC
:104150005E210F900F900F900F90FFCFFF92EF9284
:104160000E945E218BB180588BB9809122038E7F93
:10417000809322030F900F9082CF5C9AB29A809125
:104180007800909179009370E2E2F3E0382F330FDA
:1041900020812170232B2083A3E2B3E0282F221F4C
:1041A0002227221F8C918E7F822B8C939370990FE4
:1041B0008C91897F892B8C938081816080835C982E
:1041C00008955D9A0E9407165D9808958BB198E056
:1041D00089278BB90895AA1BBB1B51E107C0AA1FF1
:1041E000BB1FA617B70710F0A61BB70B881F991F98
:1041F0005A95A9F780959095BC01CD010895A1E24B
:104200001A2EAA1BBB1BFD010DC0AA1FBB1FEE1F50
:10421000FF1FA217B307E407F50720F0A21BB30B9B
:10422000E40BF50B661F771F881F991F1A9469F717
:1042300060957095809590959B01AC01BD01CF0173
:104240000895EE0FFF1F0590F491E02D09940E9450
:104250004F21A59F900DB49F900DA49F800D911D9F
:104260001124089597FD1094002E083098F00850FE
:10427000232F342F452F562F672F782F892F912DDD
:10428000F4CF1594979587957795679557954795AA
:10429000379527950A95AAF71124002D0895A29F16
:1042A000B001B39FC001A39F700D811D1124911D0A
:1042B000B29F700D811D1124911D0895B0E0A0E002
:1042C000E4E6F1E20C942524AE014B5F5F4FFA0166
:1042D00061917191AF0180912603909127030E9413
:1042E0009721E2E00C944124AEE0B0E0EAE7F1E28D
:1042F0000C9423240D891E8986E08C831A830983FC
:104300008FEF9FE79E838D83AE01475E5F4F6F897E
:10431000788DCE0101960E9497212F813885020F5A
:10432000131FF80110822E96E4E00C943F24ABE0BA
:10433000B0E0EDE9F1E20C9415247C013B018A0127
:10434000FC0117821682838181FFC8C1CE010196CC
:104350005C01F7019381F30193FD859193FF8191B6
:104360003F01882309F453C1853239F493FD8591C7
:1043700093FF81913F01853229F4B70190E00E94BB
:104380008723E7CF912C212C312CFFE1F31538F056
:104390008B3211F190F4803209F1833229F137FC2C
:1043A0003CC020ED280F2A3050F536FE20C08AE0B0
:1043B000989E200D1124922E06C08D3291F08033EC
:1043C00071F7689430F8F30193FD859193FF819123
:1043D0003F018111DACF21C0689431F8689432F836
:1043E000F2CF689433F8EFCF689434F8ECCFEAE07A
:1043F0002E9E200D1124222E689435F8E4CF8E32A3
:1044000029F436FC04C1689436F8DDCF8C3619F4F3
:10441000689437F8D8CF8836B1F2982F9F7D95549D
:104420009330E0F08336A1F18337C1F1833509F091
:1044300063C02801F2E04F0E511CF801C080D1800A
:10444000692D70E036FC02C06FEF7FEFC6010E945D
:1044500071234C01689437F882010AC00C5F1F4F2A
:10446000FFE3F98388248394912C6501E89437F85D
:1044700033FE2DC0522C8114910471F5552009F49E
:1044800068CFB70180E290E00E9487235A94F6CF6C
:10449000F801808189830E5F1F4FE4CF2801F2E08D
:1044A0004F0E511CF801C080D180692D70E036FCA0
:1044B00002C06FEF7FEFC6010E947C234C01820196
:1044C000D5CFB70180E290E00E9487232A94281478
:1044D000190409F0B0F7CECFF60137FC859137FE0D
:1044E00081916F01B70190E00E94872351105A9487
:1044F000F1E08F1A9108BFCF843619F0893609F0A0
:1045000077C0F80137FE6BC0608171818281938131
:104510000C5F1F4FF32DFF763F2E97FF09C090953C
:104520008095709561957F4F8F4F9F4F689437F8B6
:104530002AE030E0A5010E94B723C82ECA188C2CAF
:10454000432C36FE0CC0E89440F8C91440F434FE05
:1045500005C032FC03C0F32DFE7E4F2E892C44FE95
:1045600095C0FE01EC0DF11D8081803309F087C0FC
:10457000242D297E422E842D8870582E43FC95C010
:1045800040FE8FC09C2C821418F42C0C922C98188E
:1045900044FE91C0B70180E390E00E94872342FE71
:1045A00009C088E790E041FE02C088E590E0B701CD
:1045B0000E948723C91408F48AC0CA94D12C9FEFA3
:1045C000C91AD90ACA0CDB1CF60182916F01B70126
:1045D00090E00E948723AC14BD04B1F74FCF6081F7
:1045E0007181072E000C880B990B0E5F1F4F92CF25
:1045F000D32CE894D4F82AE030E0853739F1232D24
:10460000297FD22E8F3601F148F48835A9F0F701C1
:10461000868197812B96E2E10C943124803749F012
:104620008837A9F7D4FE02C06894D2F820E130E0C0
:104630000DC06894D4F8F6CF34FE03C0822F866094
:10464000D82E20E132E002C028E030E0F801D7FEA9
:104650000FC060817181828193810C5F1F4FA50122
:104660000E94B723C82ECA183D2CE89437F867CFAC
:104670006081718190E080E00E5F1F4FF0CF42FCBF
:1046800002C0839478CF8394839475CF842D8678E9
:1046900009F471CFF6CFB70180E290E00E94872342
:1046A00083948214C0F3512C73CF522C5818821467
:1046B00008F46ECFF8CF842D867809F47BCF8BE297
:1046C00041FE80E247FC8DE2B70190E071CFB70177
:1046D00080E390E00E9487239A946CCF8FEF9FEF46
:1046E00099CFFC010590615070400110D8F780957A
:1046F00090958E0F9F1F0895FC01615070400190AE
:104700000110D8F7809590958E0F9F1F08950F93F5
:104710001F93CF93DF93182F092FEB018B8181FD1E
:1047200009C01FEF0FEF812F902FDF91CF911F91C5
:104730000F91089582FF14C02E813F818C819D814D
:10474000281739073CF4E881F981CF010196998354
:10475000888310838E819F8101969F838E83E3CF10
:10476000E885F985812F0995892BA1F3DACFFA0124
:10477000AA27283051F1203181F1E8946F936E7FA0
:104780006E5F7F4F8F4F9F4FAF4FB1E03ED0B4E091
:104790003CD0670F781F891F9A1FA11D680F791FD2
:1047A0008A1F911DA11D6A0F711D811D911DA11DE3
:1047B00020D009F468943F912AE0269F11243019F3
:1047C000305D3193DEF6CF010895462F4770405D8E
:1047D0004193B3E00FD0C9F7F6CF462F4F70405D3D
:1047E0004A3318F0495D31FD4052419302D0A9F798
:1047F000EACFB4E0A6959795879577956795BA9592
:10480000C9F700976105710508959B01AC010A2E57
:1048100006945795479537952795BA95C9F7620F2E
:10482000731F841F951FA01D08952F923F924F92D2
:104830005F926F927F928F929F92AF92BF92CF9230
:10484000DF92EF92FF920F931F93CF93DF93CDB739
:10485000DEB7CA1BDB0B0FB6F894DEBF0FBECDBFB1
:1048600009942A88398848885F846E847D848C8482
:104870009B84AA84B984C884DF80EE80FD800C818B
:104880001B81AA81B981CE0FD11D0FB6F894DEBF6E
:0C4890000FBECDBFED010895F894FFCFDE
:10489C000146415400464154333200222A2B2C3A13
:1048AC003B3C3D3E3F5B5D7C7F00000000000B1BF2
:1048BC0096199D193F1BAB19A419C719CA195B206E
:1048CC00204F4B20205D2055534152543020636FB4
:1048DC006E66696775726564210D005B20204F4B15
:1048EC0020205D2054494D45523020636F6E66691F
:1048FC006775726564210D005B204641494C205D53
:10490C002053442063617264206D6F756E74206651
:10491C0061696C65642077697468206572726F7266
:10492C00202575210D005B20204F4B20205D20534E
:10493C00442063617264206D6F756E746564210D23
:10494C000046494C45253034752E545854005B2094
:10495C00494E464F205D2046696C652027257327FC
:10496C0020637265617465642E0D005B20204F4BD3
:10497C0020205D2041444320636F6E666967757229
:10498C006564210D005B20204F4B20205D20544995
:10499C004D45523120636F6E66696775726564218F
:1049AC000D004144433D253034750D0A005B204613
:1049BC0041494C205D20436F756C64206E6F7420F0
:1049CC00777269746520646174612E204572726F10
:1049DC00723D25750D005B20204F4B20205D20443F
:1049EC00617461207772697474656E2E2025752050
:1049FC006279746573210D005B204641494C205D42
:104A0C0020436F756C64206E6F7420736176652023
:104A1C0066696C652E204572726F723D25750D00AE
:104A2C005B20204F4B20205D2046696C6520736114
:064A3C007665642E0D00FA
:00000001FF
