:100000000C9434000C9449000C9449000C94490061
:100010000C9449000C9449000C9449000C9449003C
:100020000C9449000C9449000C9449000C9449002C
:100030000C9449000C9449000C9449000C9449001C
:100040000C9449000C9449000C9449000C9449000C
:100050000C9449000C9449000C9449000C944900FC
:100060000C9449000C94490011241FBECFEFD8E036
:10007000DEBFCDBF11E0A0E0B1E0EAEDF0E002C0EC
:1000800005900D92A031B107D9F70E9455000C944C
:100090006B000C940000803130F4E82FF0E0E05069
:1000A000FF4F808108958FEF08958FEF8AB9C0E0E8
:1000B0008C2F0E944B008BB9C93059F0CF5F2FEFC6
:1000C00089E698E1215080409040E1F700C00000AF
:0A00D000EFCFC0E0F4CFF894FFCFAB
:1000DA00C0F9A4B0999282F880908883C6A1868ECE
:00000001FF
